{
  "contractName": "Insurance",
  "abi": [
    {
      "constant": true,
      "inputs": [],
      "name": "user",
      "outputs": [
        {
          "name": "",
          "type": "address"
        }
      ],
      "payable": false,
      "stateMutability": "view",
      "type": "function",
      "signature": "0x4f8632ba"
    },
    {
      "constant": true,
      "inputs": [],
      "name": "pay_money",
      "outputs": [
        {
          "name": "",
          "type": "uint256"
        }
      ],
      "payable": false,
      "stateMutability": "view",
      "type": "function",
      "signature": "0x7a3979da"
    },
    {
      "constant": true,
      "inputs": [],
      "name": "buy_money",
      "outputs": [
        {
          "name": "",
          "type": "uint256"
        }
      ],
      "payable": false,
      "stateMutability": "view",
      "type": "function",
      "signature": "0x7c94cfb1"
    },
    {
      "constant": true,
      "inputs": [
        {
          "name": "",
          "type": "address"
        }
      ],
      "name": "document",
      "outputs": [
        {
          "name": "A",
          "type": "bool"
        },
        {
          "name": "B",
          "type": "bool"
        }
      ],
      "payable": false,
      "stateMutability": "view",
      "type": "function",
      "signature": "0x850a4ace"
    },
    {
      "constant": true,
      "inputs": [],
      "name": "total_usr",
      "outputs": [
        {
          "name": "",
          "type": "uint256"
        }
      ],
      "payable": false,
      "stateMutability": "view",
      "type": "function",
      "signature": "0x9935f1fc"
    },
    {
      "constant": true,
      "inputs": [],
      "name": "insurer",
      "outputs": [
        {
          "name": "",
          "type": "address"
        }
      ],
      "payable": false,
      "stateMutability": "view",
      "type": "function",
      "signature": "0xdbc837c5"
    },
    {
      "constant": true,
      "inputs": [
        {
          "name": "",
          "type": "address"
        }
      ],
      "name": "detail",
      "outputs": [
        {
          "name": "state",
          "type": "uint8"
        },
        {
          "name": "user_addr",
          "type": "address"
        },
        {
          "name": "userid",
          "type": "uint256"
        },
        {
          "name": "startM",
          "type": "uint256"
        },
        {
          "name": "startD",
          "type": "uint256"
        },
        {
          "name": "endM",
          "type": "uint256"
        },
        {
          "name": "endD",
          "type": "uint256"
        },
        {
          "name": "if_accident",
          "type": "bool"
        },
        {
          "name": "money",
          "type": "uint256"
        }
      ],
      "payable": false,
      "stateMutability": "view",
      "type": "function",
      "signature": "0xec5b5932"
    },
    {
      "inputs": [],
      "payable": true,
      "stateMutability": "payable",
      "type": "constructor",
      "signature": "constructor"
    },
    {
      "anonymous": false,
      "inputs": [
        {
          "indexed": false,
          "name": "userID",
          "type": "uint256"
        },
        {
          "indexed": false,
          "name": "user_addr",
          "type": "address"
        },
        {
          "indexed": false,
          "name": "startM",
          "type": "uint256"
        },
        {
          "indexed": false,
          "name": "startD",
          "type": "uint256"
        },
        {
          "indexed": false,
          "name": "endM",
          "type": "uint256"
        },
        {
          "indexed": false,
          "name": "endD",
          "type": "uint256"
        },
        {
          "indexed": false,
          "name": "accident",
          "type": "bool"
        }
      ],
      "name": "e_Detail",
      "type": "event",
      "signature": "0x927849cf5cda5ffc89403b0a3471a75ff2b961d24878ff5729705ca9bf6e0c9c"
    },
    {
      "anonymous": false,
      "inputs": [
        {
          "indexed": false,
          "name": "user_addr",
          "type": "address"
        },
        {
          "indexed": false,
          "name": "A",
          "type": "bool"
        },
        {
          "indexed": false,
          "name": "B",
          "type": "bool"
        },
        {
          "indexed": false,
          "name": "if_accident",
          "type": "bool"
        }
      ],
      "name": "e_Document",
      "type": "event",
      "signature": "0x719dc7ff8a9efab808f61d40a0519dcb355cf977b3c9ebe02ba7710f842b7b12"
    },
    {
      "anonymous": false,
      "inputs": [
        {
          "indexed": false,
          "name": "uid",
          "type": "uint256"
        }
      ],
      "name": "UID",
      "type": "event",
      "signature": "0x0e6d707f68eac74ee57c7df930c3bc3c6d289e4efdd9f03edb84c2847955dcc0"
    },
    {
      "anonymous": false,
      "inputs": [
        {
          "indexed": false,
          "name": "output",
          "type": "string"
        }
      ],
      "name": "done",
      "type": "event",
      "signature": "0x00467151cfd444517705ab188779d73a34223ae980dd9b7cbcc0121e339f3f42"
    },
    {
      "anonymous": false,
      "inputs": [
        {
          "indexed": false,
          "name": "total_usr",
          "type": "uint256"
        },
        {
          "indexed": false,
          "name": "claim_usr",
          "type": "uint256"
        },
        {
          "indexed": false,
          "name": "contract_ether",
          "type": "uint256"
        }
      ],
      "name": "moreinfo",
      "type": "event",
      "signature": "0xbcbb524e0e53f94e295075a2100848243de736353619ef60d4b4b6268509c21f"
    },
    {
      "constant": false,
      "inputs": [
        {
          "name": "_startM",
          "type": "uint256"
        },
        {
          "name": "_startD",
          "type": "uint256"
        },
        {
          "name": "_endM",
          "type": "uint256"
        },
        {
          "name": "_endD",
          "type": "uint256"
        },
        {
          "name": "_userid",
          "type": "uint256"
        }
      ],
      "name": "SetDetail",
      "outputs": [
        {
          "name": "",
          "type": "string"
        }
      ],
      "payable": true,
      "stateMutability": "payable",
      "type": "function",
      "signature": "0x3b5ae819"
    },
    {
      "constant": false,
      "inputs": [
        {
          "name": "_A",
          "type": "string"
        },
        {
          "name": "_B",
          "type": "string"
        },
        {
          "name": "_M",
          "type": "uint256"
        },
        {
          "name": "_D",
          "type": "uint256"
        }
      ],
      "name": "getDocument",
      "outputs": [
        {
          "name": "",
          "type": "string"
        }
      ],
      "payable": false,
      "stateMutability": "nonpayable",
      "type": "function",
      "signature": "0x058ebdd6"
    },
    {
      "constant": false,
      "inputs": [],
      "name": "transfer",
      "outputs": [],
      "payable": true,
      "stateMutability": "payable",
      "type": "function",
      "signature": "0x8a4068dd"
    },
    {
      "constant": true,
      "inputs": [
        {
          "name": "a",
          "type": "address"
        }
      ],
      "name": "getbalanceOf",
      "outputs": [
        {
          "name": "",
          "type": "uint256"
        }
      ],
      "payable": false,
      "stateMutability": "view",
      "type": "function",
      "signature": "0x47e851fa"
    },
    {
      "constant": true,
      "inputs": [],
      "name": "contract_balance",
      "outputs": [
        {
          "name": "",
          "type": "uint256"
        }
      ],
      "payable": false,
      "stateMutability": "view",
      "type": "function",
      "signature": "0x057440d3"
    },
    {
      "constant": false,
      "inputs": [],
      "name": "getUserID",
      "outputs": [],
      "payable": false,
      "stateMutability": "nonpayable",
      "type": "function",
      "signature": "0x2eeb6d7f"
    },
    {
      "constant": false,
      "inputs": [],
      "name": "lessmoney",
      "outputs": [],
      "payable": true,
      "stateMutability": "payable",
      "type": "function",
      "signature": "0xeb5275f8"
    },
    {
      "constant": false,
      "inputs": [],
      "name": "moreInfo",
      "outputs": [],
      "payable": false,
      "stateMutability": "nonpayable",
      "type": "function",
      "signature": "0x5f2420ac"
    }
  ],
  "bytecode": "0x60806040526000805560006001556801158e460913d000006002556801158e460913d0000060035533600560006101000a81548173ffffffffffffffffffffffffffffffffffffffff021916908373ffffffffffffffffffffffffffffffffffffffff1602179055503460086000600560009054906101000a900473ffffffffffffffffffffffffffffffffffffffff1673ffffffffffffffffffffffffffffffffffffffff1673ffffffffffffffffffffffffffffffffffffffff16815260200190815260200160002081905550611e3f806100dd6000396000f3fe6080604052600436106100db576000357c0100000000000000000000000000000000000000000000000000000000900463ffffffff168063057440d3146100e0578063058ebdd61461010b5780632eeb6d7f146102f75780633b5ae8191461030e57806347e851fa146103dd5780634f8632ba146104425780635f2420ac146104995780637a3979da146104b05780637c94cfb1146104db578063850a4ace146105065780638a4068dd1461057a5780639935f1fc14610584578063dbc837c5146105af578063eb5275f814610606578063ec5b593214610610575b600080fd5b3480156100ec57600080fd5b506100f56106eb565b6040518082815260200191505060405180910390f35b34801561011757600080fd5b5061027c6004803603608081101561012e57600080fd5b810190808035906020019064010000000081111561014b57600080fd5b82018360208201111561015d57600080fd5b8035906020019184600183028401116401000000008311171561017f57600080fd5b91908080601f016020809104026020016040519081016040528093929190818152602001838380828437600081840152601f19601f820116905080830192505050505050509192919290803590602001906401000000008111156101e257600080fd5b8201836020820111156101f457600080fd5b8035906020019184600183028401116401000000008311171561021657600080fd5b91908080601f016020809104026020016040519081016040528093929190818152602001838380828437600081840152601f19601f820116905080830192505050505050509192919290803590602001909291908035906020019092919050505061070a565b6040518080602001828103825283818151815260200191508051906020019080838360005b838110156102bc5780820151818401526020810190506102a1565b50505050905090810190601f1680156102e95780820380516001836020036101000a031916815260200191505b509250505060405180910390f35b34801561030357600080fd5b5061030c61105b565b005b610362600480360360a081101561032457600080fd5b8101908080359060200190929190803590602001909291908035906020019092919080359060200190929190803590602001909291905050506110d6565b6040518080602001828103825283818151815260200191508051906020019080838360005b838110156103a2578082015181840152602081019050610387565b50505050905090810190601f1680156103cf5780820380516001836020036101000a031916815260200191505b509250505060405180910390f35b3480156103e957600080fd5b5061042c6004803603602081101561040057600080fd5b81019080803573ffffffffffffffffffffffffffffffffffffffff169060200190929190505050611748565b6040518082815260200191505060405180910390f35b34801561044e57600080fd5b50610457611791565b604051808273ffffffffffffffffffffffffffffffffffffffff1673ffffffffffffffffffffffffffffffffffffffff16815260200191505060405180910390f35b3480156104a557600080fd5b506104ae6117b7565b005b3480156104bc57600080fd5b506104c56118e0565b6040518082815260200191505060405180910390f35b3480156104e757600080fd5b506104f06118e6565b6040518082815260200191505060405180910390f35b34801561051257600080fd5b506105556004803603602081101561052957600080fd5b81019080803573ffffffffffffffffffffffffffffffffffffffff1690602001909291905050506118ec565b6040518083151515158152602001821515151581526020019250505060405180910390f35b61058261192a565b005b34801561059057600080fd5b50610599611c29565b6040518082815260200191505060405180910390f35b3480156105bb57600080fd5b506105c4611c2f565b604051808273ffffffffffffffffffffffffffffffffffffffff1673ffffffffffffffffffffffffffffffffffffffff16815260200191505060405180910390f35b61060e611c55565b005b34801561061c57600080fd5b5061065f6004803603602081101561063357600080fd5b81019080803573ffffffffffffffffffffffffffffffffffffffff169060200190929190505050611d8b565b604051808a600281111561066f57fe5b60ff1681526020018973ffffffffffffffffffffffffffffffffffffffff1673ffffffffffffffffffffffffffffffffffffffff16815260200188815260200187815260200186815260200185815260200184815260200183151515158152602001828152602001995050505050505050505060405180910390f35b60003073ffffffffffffffffffffffffffffffffffffffff1631905090565b6060600180600281111561071a57fe5b60066000600460009054906101000a900473ffffffffffffffffffffffffffffffffffffffff1673ffffffffffffffffffffffffffffffffffffffff1673ffffffffffffffffffffffffffffffffffffffff16815260200190815260200160002060000160009054906101000a900460ff16600281111561079757fe5b14151561080c576040517f08c379a000000000000000000000000000000000000000000000000000000000815260040180806020018281038252600d8152602001807f496e76616c69642073746174650000000000000000000000000000000000000081525060200191505060405180910390fd5b33600460006101000a81548173ffffffffffffffffffffffffffffffffffffffff021916908373ffffffffffffffffffffffffffffffffffffffff160217905550600080905060008090506040805190810160405280600a81526020017f656d657267656e637931000000000000000000000000000000000000000000008152508051906020012088805190602001201480156108eb57506040805190810160405280600981526020017f73757267656e6379320000000000000000000000000000000000000000000000815250805190602001208780519060200120145b156109ef57600160076000600460009054906101000a900473ffffffffffffffffffffffffffffffffffffffff1673ffffffffffffffffffffffffffffffffffffffff1673ffffffffffffffffffffffffffffffffffffffff16815260200190815260200160002060000160006101000a81548160ff021916908315150217905550600160076000600460009054906101000a900473ffffffffffffffffffffffffffffffffffffffff1673ffffffffffffffffffffffffffffffffffffffff1673ffffffffffffffffffffffffffffffffffffffff16815260200190815260200160002060000160016101000a81548160ff021916908315150217905550600191505b811515610a64576040517f08c379a000000000000000000000000000000000000000000000000000000000815260040180806020018281038252600f8152602001807f77726f6e6720646f63756d656e742e000000000000000000000000000000000081525060200191505060405180910390fd5b8560066000600460009054906101000a900473ffffffffffffffffffffffffffffffffffffffff1673ffffffffffffffffffffffffffffffffffffffff1673ffffffffffffffffffffffffffffffffffffffff16815260200190815260200160002060020154108015610b3a575060066000600460009054906101000a900473ffffffffffffffffffffffffffffffffffffffff1673ffffffffffffffffffffffffffffffffffffffff1673ffffffffffffffffffffffffffffffffffffffff1681526020019081526020016000206004015486105b15610b485760019050610d10565b8560066000600460009054906101000a900473ffffffffffffffffffffffffffffffffffffffff1673ffffffffffffffffffffffffffffffffffffffff1673ffffffffffffffffffffffffffffffffffffffff16815260200190815260200160002060020154148015610c1f57508460066000600460009054906101000a900473ffffffffffffffffffffffffffffffffffffffff1673ffffffffffffffffffffffffffffffffffffffff1673ffffffffffffffffffffffffffffffffffffffff1681526020019081526020016000206003015411155b15610c2d5760019050610d0f565b8560066000600460009054906101000a900473ffffffffffffffffffffffffffffffffffffffff1673ffffffffffffffffffffffffffffffffffffffff1673ffffffffffffffffffffffffffffffffffffffff16815260200190815260200160002060040154148015610d04575060066000600460009054906101000a900473ffffffffffffffffffffffffffffffffffffffff1673ffffffffffffffffffffffffffffffffffffffff1673ffffffffffffffffffffffffffffffffffffffff168152602001908152602001600020600501548511155b15610d0e57600190505b5b5b801515610d85576040517f08c379a000000000000000000000000000000000000000000000000000000000815260040180806020018281038252600b8152602001807f77726f6e6720646174652e00000000000000000000000000000000000000000081525060200191505060405180910390fd5b610d8d61192a565b600160066000600460009054906101000a900473ffffffffffffffffffffffffffffffffffffffff1673ffffffffffffffffffffffffffffffffffffffff1673ffffffffffffffffffffffffffffffffffffffff16815260200190815260200160002060060160006101000a81548160ff0219169083151502179055506001600081548092919060010191905055507f719dc7ff8a9efab808f61d40a0519dcb355cf977b3c9ebe02ba7710f842b7b12600460009054906101000a900473ffffffffffffffffffffffffffffffffffffffff1660076000600460009054906101000a900473ffffffffffffffffffffffffffffffffffffffff1673ffffffffffffffffffffffffffffffffffffffff1673ffffffffffffffffffffffffffffffffffffffff16815260200190815260200160002060000160009054906101000a900460ff1660076000600460009054906101000a900473ffffffffffffffffffffffffffffffffffffffff1673ffffffffffffffffffffffffffffffffffffffff1673ffffffffffffffffffffffffffffffffffffffff16815260200190815260200160002060000160019054906101000a900460ff1660066000600460009054906101000a900473ffffffffffffffffffffffffffffffffffffffff1673ffffffffffffffffffffffffffffffffffffffff1673ffffffffffffffffffffffffffffffffffffffff16815260200190815260200160002060060160009054906101000a900460ff16604051808573ffffffffffffffffffffffffffffffffffffffff1673ffffffffffffffffffffffffffffffffffffffff16815260200184151515158152602001831515151581526020018215151515815260200194505050505060405180910390a16040805190810160405280600e81526020017f696e20676574446f63756d656e740000000000000000000000000000000000008152509350505050949350505050565b7f0e6d707f68eac74ee57c7df930c3bc3c6d289e4efdd9f03edb84c2847955dcc0600660003373ffffffffffffffffffffffffffffffffffffffff1673ffffffffffffffffffffffffffffffffffffffff168152602001908152602001600020600101546040518082815260200191505060405180910390a1565b606033600460006101000a81548173ffffffffffffffffffffffffffffffffffffffff021916908373ffffffffffffffffffffffffffffffffffffffff1602179055506000808154809291906001019190505550600460009054906101000a900473ffffffffffffffffffffffffffffffffffffffff1673ffffffffffffffffffffffffffffffffffffffff163160086000600460009054906101000a900473ffffffffffffffffffffffffffffffffffffffff1673ffffffffffffffffffffffffffffffffffffffff1673ffffffffffffffffffffffffffffffffffffffff16815260200190815260200160002081905550600460009054906101000a900473ffffffffffffffffffffffffffffffffffffffff1660066000600460009054906101000a900473ffffffffffffffffffffffffffffffffffffffff1673ffffffffffffffffffffffffffffffffffffffff1673ffffffffffffffffffffffffffffffffffffffff16815260200190815260200160002060000160016101000a81548173ffffffffffffffffffffffffffffffffffffffff021916908373ffffffffffffffffffffffffffffffffffffffff1602179055508160066000600460009054906101000a900473ffffffffffffffffffffffffffffffffffffffff1673ffffffffffffffffffffffffffffffffffffffff1673ffffffffffffffffffffffffffffffffffffffff168152602001908152602001600020600101819055508560066000600460009054906101000a900473ffffffffffffffffffffffffffffffffffffffff1673ffffffffffffffffffffffffffffffffffffffff1673ffffffffffffffffffffffffffffffffffffffff168152602001908152602001600020600201819055508460066000600460009054906101000a900473ffffffffffffffffffffffffffffffffffffffff1673ffffffffffffffffffffffffffffffffffffffff1673ffffffffffffffffffffffffffffffffffffffff168152602001908152602001600020600301819055508360066000600460009054906101000a900473ffffffffffffffffffffffffffffffffffffffff1673ffffffffffffffffffffffffffffffffffffffff1673ffffffffffffffffffffffffffffffffffffffff168152602001908152602001600020600401819055508260066000600460009054906101000a900473ffffffffffffffffffffffffffffffffffffffff1673ffffffffffffffffffffffffffffffffffffffff1673ffffffffffffffffffffffffffffffffffffffff16815260200190815260200160002060050181905550600060066000600460009054906101000a900473ffffffffffffffffffffffffffffffffffffffff1673ffffffffffffffffffffffffffffffffffffffff1673ffffffffffffffffffffffffffffffffffffffff16815260200190815260200160002060060160006101000a81548160ff021916908315150217905550600160066000600460009054906101000a900473ffffffffffffffffffffffffffffffffffffffff1673ffffffffffffffffffffffffffffffffffffffff1673ffffffffffffffffffffffffffffffffffffffff16815260200190815260200160002060000160006101000a81548160ff0219169083600281111561159957fe5b0217905550600060076000600460009054906101000a900473ffffffffffffffffffffffffffffffffffffffff1673ffffffffffffffffffffffffffffffffffffffff1673ffffffffffffffffffffffffffffffffffffffff16815260200190815260200160002060000160006101000a81548160ff021916908315150217905550600060076000600460009054906101000a900473ffffffffffffffffffffffffffffffffffffffff1673ffffffffffffffffffffffffffffffffffffffff1673ffffffffffffffffffffffffffffffffffffffff16815260200190815260200160002060000160016101000a81548160ff0219169083151502179055503460086000600560009054906101000a900473ffffffffffffffffffffffffffffffffffffffff1673ffffffffffffffffffffffffffffffffffffffff1673ffffffffffffffffffffffffffffffffffffffff168152602001908152602001600020600082825401925050819055506040805190810160405280600a81526020017f7365742064657461696c00000000000000000000000000000000000000000000815250905095945050505050565b6000600860008373ffffffffffffffffffffffffffffffffffffffff1673ffffffffffffffffffffffffffffffffffffffff168152602001908152602001600020549050919050565b600460009054906101000a900473ffffffffffffffffffffffffffffffffffffffff1681565b600560009054906101000a900473ffffffffffffffffffffffffffffffffffffffff1673ffffffffffffffffffffffffffffffffffffffff163373ffffffffffffffffffffffffffffffffffffffff1614151561187c576040517f08c379a000000000000000000000000000000000000000000000000000000000815260040180806020018281038252600b8152602001807f6e6f7420696e737572657200000000000000000000000000000000000000000081525060200191505060405180910390fd5b7fbcbb524e0e53f94e295075a2100848243de736353619ef60d4b4b6268509c21f6000546001543073ffffffffffffffffffffffffffffffffffffffff163160405180848152602001838152602001828152602001935050505060405180910390a1565b60025481565b60035481565b60076020528060005260406000206000915090508060000160009054906101000a900460ff16908060000160019054906101000a900460ff16905082565b60025460086000600560009054906101000a900473ffffffffffffffffffffffffffffffffffffffff1673ffffffffffffffffffffffffffffffffffffffff1673ffffffffffffffffffffffffffffffffffffffff1681526020019081526020016000205410151515611a05576040517f08c379a00000000000000000000000000000000000000000000000000000000081526004018080602001828103825260108152602001807f6e6f206d6f6e657920746f207061792e0000000000000000000000000000000081525060200191505060405180910390fd5b600460009054906101000a900473ffffffffffffffffffffffffffffffffffffffff1673ffffffffffffffffffffffffffffffffffffffff166108fc6002549081150290604051600060405180830381858888f19350505050158015611a6f573d6000803e3d6000fd5b50600460009054906101000a900473ffffffffffffffffffffffffffffffffffffffff1673ffffffffffffffffffffffffffffffffffffffff163160086000600460009054906101000a900473ffffffffffffffffffffffffffffffffffffffff1673ffffffffffffffffffffffffffffffffffffffff1673ffffffffffffffffffffffffffffffffffffffff16815260200190815260200160002060008282540192505081905550600560009054906101000a900473ffffffffffffffffffffffffffffffffffffffff1673ffffffffffffffffffffffffffffffffffffffff163160086000600560009054906101000a900473ffffffffffffffffffffffffffffffffffffffff1673ffffffffffffffffffffffffffffffffffffffff1673ffffffffffffffffffffffffffffffffffffffff168152602001908152602001600020600082825403925050819055507e467151cfd444517705ab188779d73a34223ae980dd9b7cbcc0121e339f3f4260405180806020018281038252600f8152602001807f66696e697368207472616e73666572000000000000000000000000000000000081525060200191505060405180910390a1565b60005481565b600560009054906101000a900473ffffffffffffffffffffffffffffffffffffffff1681565b600560009054906101000a900473ffffffffffffffffffffffffffffffffffffffff1673ffffffffffffffffffffffffffffffffffffffff163373ffffffffffffffffffffffffffffffffffffffff16141515611d1a576040517f08c379a000000000000000000000000000000000000000000000000000000000815260040180806020018281038252600b8152602001807f6e6f7420696e737572657200000000000000000000000000000000000000000081525060200191505060405180910390fd5b3460086000600560009054906101000a900473ffffffffffffffffffffffffffffffffffffffff1673ffffffffffffffffffffffffffffffffffffffff1673ffffffffffffffffffffffffffffffffffffffff16815260200190815260200160002060008282540192505081905550565b60066020528060005260406000206000915090508060000160009054906101000a900460ff16908060000160019054906101000a900473ffffffffffffffffffffffffffffffffffffffff16908060010154908060020154908060030154908060040154908060050154908060060160009054906101000a900460ff1690806007015490508956fea165627a7a72305820f73a4180079dab71f4f41b46799ecf8aa7e3bc4e19c75df6ef568fc274399eb10029",
  "source": "pragma solidity ^0.5.0;\r\n\r\ncontract Insurance{\r\n    uint public total_usr = 0;\r\n     uint claim_usr = 0;\r\n    uint public pay_money = 20 ether;\r\n    uint public buy_money = 20 ether;\r\n    address payable public user;\r\n    address payable public insurer;\r\n    enum State {Start, SetDetail, EndContract}\r\n\r\n    struct Detail{      //contract detail\r\n        State state;\r\n        address user_addr;\r\n        uint userid;\r\n        uint startM;\r\n        uint startD;\r\n        uint endM;\r\n        uint endD;\r\n        bool if_accident;\r\n        uint money;\r\n    }\r\n\r\n    struct Document{   //claim document\r\n        bool A;\r\n        bool B;\r\n    }\r\n\r\n    mapping(address => Detail) public detail;\r\n    mapping(address => Document) public document;\r\n    mapping(address => uint256) balanceOf;\r\n\r\n    event e_Detail( \r\n        uint userID,\r\n        address user_addr,\r\n        uint startM,\r\n        uint startD,\r\n        uint endM,\r\n        uint endD,\r\n        bool accident\r\n    );\r\n\r\n    event e_Document(\r\n        address user_addr,\r\n        bool A,\r\n        bool B,\r\n        bool if_accident\r\n    );\r\n\r\n    event UID(\r\n        uint uid\r\n    );\r\n\r\n    event done(\r\n        string output\r\n    );\r\n\r\n    event moreinfo(\r\n        uint total_usr,\r\n        uint claim_usr,\r\n        uint256 contract_ether\r\n    );\r\n\r\n    //modifier function\r\n    modifier onlyinsurer(){\r\n        require(\r\n            msg.sender == insurer,\r\n            \"not insurer\"\r\n        );\r\n        _;\r\n    }\r\n\r\n    modifier inState(State _state){\r\n        require(\r\n            detail[user].state == _state,\r\n            \"Invalid state\"\r\n        );\r\n        _;\r\n    }\r\n\r\n    //start\r\n    //get into constructor when contract be deployed - only one time\r\n    constructor() public payable{\r\n        insurer = msg.sender;\r\n        balanceOf[insurer] = msg.value;\r\n    }\r\n\r\n    function SetDetail(uint _startM, uint _startD, uint _endM,  uint _endD, uint _userid) payable public returns (string memory){\r\n        //init\r\n        user = msg.sender;\r\n        total_usr++;\r\n        balanceOf[user]=user.balance;\r\n\r\n        //set detail struct data\r\n        detail[user].user_addr = user;\r\n        detail[user].userid = _userid;\r\n        detail[user].startM = _startM;\r\n        detail[user].startD = _startD;\r\n        detail[user].endM = _endM;\r\n        detail[user].endD = _endD;\r\n        detail[user].if_accident = false;\r\n        detail[user].state = State.SetDetail;\r\n\r\n        //init document\r\n        document[user].A = false;\r\n        document[user].B = false;\r\n\r\n        //buy contract\r\n        balanceOf[insurer] += msg.value;\r\n        return (\"set detail\");\r\n    }\r\n\r\n    function getDocument(string memory _A, string memory  _B, uint _M, uint _D) public inState(State.SetDetail) returns (string memory){\r\n        user = msg.sender;\r\n        bool flag_doc = false;\r\n        bool flag_date = false;\r\n\r\n        if(keccak256(bytes(_A))==keccak256(bytes(\"emergency1\")) && keccak256(bytes(_B))==keccak256(bytes(\"surgency2\"))){\r\n            document[user].A = true;\r\n            document[user].B = true;\r\n            flag_doc = true;\r\n        }\r\n\r\n        require( flag_doc , \"wrong document.\");\r\n\r\n        if(detail[user].startM < _M && _M < detail[user].endM){\r\n            flag_date = true;\r\n        }else if(detail[user].startM == _M && detail[user].startD <= _D){\r\n            flag_date = true;\r\n        }else if(detail[user].endM == _M && _D <= detail[user].endD){\r\n            flag_date = true;\r\n        }\r\n\r\n        require( flag_date , \"wrong date.\");\r\n        transfer();\r\n        detail[user].if_accident = true;\r\n         claim_usr++;\r\n\r\n        emit e_Document(user, document[user].A, document[user].B, detail[user].if_accident);\r\n        return (\"in getDocument\");\r\n    }\r\n\r\n    function transfer() public payable{\r\n        //1. check insurer's balance, if pay_money < insurer.balance\r\n        require(balanceOf[insurer] >= pay_money, \"no money to pay.\");\r\n\r\n        //2. transfer to user\r\n        user.transfer(pay_money);\r\n\r\n        //reset balanceOf\r\n        balanceOf[user] += user.balance;\r\n        balanceOf[insurer] -= insurer.balance;\r\n\r\n        emit done(\"finish transfer\");\r\n    }\r\n\r\n\r\n    function getbalanceOf(address a) public view returns(uint256){\r\n        return balanceOf[a];\r\n    }\r\n\r\n    function contract_balance() public view returns(uint256){\r\n        return address(this).balance;\r\n    }\r\n\r\n    function getUserID() public{\r\n        emit UID(detail[msg.sender].userid);\r\n    }\r\n\r\n    //insurer add more money\r\n    function lessmoney() payable onlyinsurer public{\r\n        balanceOf[insurer] += msg.value;\r\n    }\r\n\r\n    function moreInfo() public onlyinsurer{\r\n        emit moreinfo(total_usr, claim_usr, address(this).balance);\r\n    }\r\n}\r\n\r\n\r\n\r\n\r\n",
  "sourcePath": "D:/learnBlockChain/web/InsuranceWeb/contracts/Insurance.sol",
  "compiler": {
    "name": "solc",
    "version": "0.5.0+commit.1d4f565a.Emscripten.clang"
  },
  "schemaVersion": "3.0.3",
  "updatedAt": "2019-09-02T17:15:31.112Z",
  "devdoc": {
    "methods": {}
  },
  "userdoc": {
    "methods": {}
  }
}