{
  "contractName": "Insurance",
  "abi": [
    {
      "constant": true,
      "inputs": [],
      "name": "user",
      "outputs": [
        {
          "name": "",
          "type": "address"
        }
      ],
      "payable": false,
      "stateMutability": "view",
      "type": "function",
      "signature": "0x4f8632ba"
    },
    {
      "constant": true,
      "inputs": [],
      "name": "pay_money",
      "outputs": [
        {
          "name": "",
          "type": "uint256"
        }
      ],
      "payable": false,
      "stateMutability": "view",
      "type": "function",
      "signature": "0x7a3979da"
    },
    {
      "constant": true,
      "inputs": [
        {
          "name": "",
          "type": "address"
        }
      ],
      "name": "document",
      "outputs": [
        {
          "name": "A",
          "type": "bool"
        },
        {
          "name": "B",
          "type": "bool"
        },
        {
          "name": "C",
          "type": "bool"
        }
      ],
      "payable": false,
      "stateMutability": "view",
      "type": "function",
      "signature": "0x850a4ace"
    },
    {
      "constant": true,
      "inputs": [],
      "name": "total_usr",
      "outputs": [
        {
          "name": "",
          "type": "uint256"
        }
      ],
      "payable": false,
      "stateMutability": "view",
      "type": "function",
      "signature": "0x9935f1fc"
    },
    {
      "constant": true,
      "inputs": [],
      "name": "insurer",
      "outputs": [
        {
          "name": "",
          "type": "address"
        }
      ],
      "payable": false,
      "stateMutability": "view",
      "type": "function",
      "signature": "0xdbc837c5"
    },
    {
      "constant": true,
      "inputs": [
        {
          "name": "",
          "type": "address"
        }
      ],
      "name": "detail",
      "outputs": [
        {
          "name": "state",
          "type": "uint8"
        },
        {
          "name": "user_addr",
          "type": "address"
        },
        {
          "name": "startM",
          "type": "uint256"
        },
        {
          "name": "startD",
          "type": "uint256"
        },
        {
          "name": "endM",
          "type": "uint256"
        },
        {
          "name": "endD",
          "type": "uint256"
        },
        {
          "name": "if_accident",
          "type": "bool"
        }
      ],
      "payable": false,
      "stateMutability": "view",
      "type": "function",
      "signature": "0xec5b5932"
    },
    {
      "inputs": [],
      "payable": true,
      "stateMutability": "payable",
      "type": "constructor",
      "signature": "constructor"
    },
    {
      "anonymous": false,
      "inputs": [
        {
          "indexed": false,
          "name": "user_addr",
          "type": "address"
        },
        {
          "indexed": false,
          "name": "startM",
          "type": "uint256"
        },
        {
          "indexed": false,
          "name": "startD",
          "type": "uint256"
        },
        {
          "indexed": false,
          "name": "endM",
          "type": "uint256"
        },
        {
          "indexed": false,
          "name": "endD",
          "type": "uint256"
        },
        {
          "indexed": false,
          "name": "accident",
          "type": "bool"
        }
      ],
      "name": "e_Detail",
      "type": "event",
      "signature": "0x3cc31e73467ab2a2ecae9e567bb071be7b7a22c1ef77ddc6d9e69f92469792c6"
    },
    {
      "anonymous": false,
      "inputs": [
        {
          "indexed": false,
          "name": "user_addr",
          "type": "address"
        },
        {
          "indexed": false,
          "name": "A",
          "type": "bool"
        },
        {
          "indexed": false,
          "name": "B",
          "type": "bool"
        },
        {
          "indexed": false,
          "name": "C",
          "type": "bool"
        },
        {
          "indexed": false,
          "name": "num",
          "type": "int256"
        }
      ],
      "name": "e_Document",
      "type": "event",
      "signature": "0x36fa97672c9b1a0ea6973d38fd9c970418af0388f7683cb15038bcc06439c5a8"
    },
    {
      "constant": false,
      "inputs": [
        {
          "name": "_startM",
          "type": "uint256"
        },
        {
          "name": "_startD",
          "type": "uint256"
        },
        {
          "name": "_endM",
          "type": "uint256"
        },
        {
          "name": "_endD",
          "type": "uint256"
        }
      ],
      "name": "SetDetail",
      "outputs": [
        {
          "name": "",
          "type": "string"
        }
      ],
      "payable": false,
      "stateMutability": "nonpayable",
      "type": "function",
      "signature": "0x38ffd4e5"
    },
    {
      "constant": false,
      "inputs": [
        {
          "name": "_A",
          "type": "string"
        },
        {
          "name": "_B",
          "type": "string"
        },
        {
          "name": "_M",
          "type": "uint256"
        },
        {
          "name": "_D",
          "type": "uint256"
        }
      ],
      "name": "getDocument",
      "outputs": [
        {
          "name": "",
          "type": "string"
        }
      ],
      "payable": false,
      "stateMutability": "nonpayable",
      "type": "function",
      "signature": "0x058ebdd6"
    },
    {
      "constant": false,
      "inputs": [],
      "name": "transfer",
      "outputs": [],
      "payable": true,
      "stateMutability": "payable",
      "type": "function",
      "signature": "0x8a4068dd"
    },
    {
      "constant": true,
      "inputs": [
        {
          "name": "a",
          "type": "address"
        }
      ],
      "name": "getbalanceOf",
      "outputs": [
        {
          "name": "",
          "type": "uint256"
        }
      ],
      "payable": false,
      "stateMutability": "view",
      "type": "function",
      "signature": "0x47e851fa"
    },
    {
      "constant": true,
      "inputs": [],
      "name": "is_error",
      "outputs": [],
      "payable": false,
      "stateMutability": "pure",
      "type": "function",
      "signature": "0x7c900a22"
    }
  ],
  "bytecode": "0x608060405260008055674563918244f4000060015533600360006101000a81548173ffffffffffffffffffffffffffffffffffffffff021916908373ffffffffffffffffffffffffffffffffffffffff1602179055503460066000600360009054906101000a900473ffffffffffffffffffffffffffffffffffffffff1673ffffffffffffffffffffffffffffffffffffffff1673ffffffffffffffffffffffffffffffffffffffff16815260200190815260200160002081905550611e40806100ca6000396000f3fe6080604052600436106100af576000357c0100000000000000000000000000000000000000000000000000000000900463ffffffff168063058ebdd6146100b457806338ffd4e5146102a057806347e851fa146103725780634f8632ba146103d75780637a3979da1461042e5780637c900a2214610459578063850a4ace146104705780638a4068dd146104ef5780639935f1fc146104f9578063dbc837c514610524578063ec5b59321461057b575b600080fd5b3480156100c057600080fd5b50610225600480360360808110156100d757600080fd5b81019080803590602001906401000000008111156100f457600080fd5b82018360208201111561010657600080fd5b8035906020019184600183028401116401000000008311171561012857600080fd5b91908080601f016020809104026020016040519081016040528093929190818152602001838380828437600081840152601f19601f8201169050808301925050505050505091929192908035906020019064010000000081111561018b57600080fd5b82018360208201111561019d57600080fd5b803590602001918460018302840111640100000000831117156101bf57600080fd5b91908080601f016020809104026020016040519081016040528093929190818152602001838380828437600081840152601f19601f8201169050808301925050505050505091929192908035906020019092919080359060200190929190505050610648565b6040518080602001828103825283818151815260200191508051906020019080838360005b8381101561026557808201518184015260208101905061024a565b50505050905090810190601f1680156102925780820380516001836020036101000a031916815260200191505b509250505060405180910390f35b3480156102ac57600080fd5b506102f7600480360360808110156102c357600080fd5b8101908080359060200190929190803590602001909291908035906020019092919080359060200190929190505050610f3d565b6040518080602001828103825283818151815260200191508051906020019080838360005b8381101561033757808201518184015260208101905061031c565b50505050905090810190601f1680156103645780820380516001836020036101000a031916815260200191505b509250505060405180910390f35b34801561037e57600080fd5b506103c16004803603602081101561039557600080fd5b81019080803573ffffffffffffffffffffffffffffffffffffffff169060200190929190505050611a6c565b6040518082815260200191505060405180910390f35b3480156103e357600080fd5b506103ec611ab5565b604051808273ffffffffffffffffffffffffffffffffffffffff1673ffffffffffffffffffffffffffffffffffffffff16815260200191505060405180910390f35b34801561043a57600080fd5b50610443611adb565b6040518082815260200191505060405180910390f35b34801561046557600080fd5b5061046e611ae1565b005b34801561047c57600080fd5b506104bf6004803603602081101561049357600080fd5b81019080803573ffffffffffffffffffffffffffffffffffffffff169060200190929190505050611b5e565b60405180841515151581526020018315151515815260200182151515158152602001935050505060405180910390f35b6104f7611baf565b005b34801561050557600080fd5b5061050e611d6c565b6040518082815260200191505060405180910390f35b34801561053057600080fd5b50610539611d72565b604051808273ffffffffffffffffffffffffffffffffffffffff1673ffffffffffffffffffffffffffffffffffffffff16815260200191505060405180910390f35b34801561058757600080fd5b506105ca6004803603602081101561059e57600080fd5b81019080803573ffffffffffffffffffffffffffffffffffffffff169060200190929190505050611d98565b604051808860028111156105da57fe5b60ff1681526020018773ffffffffffffffffffffffffffffffffffffffff1673ffffffffffffffffffffffffffffffffffffffff1681526020018681526020018581526020018481526020018381526020018215151515815260200197505050505050505060405180910390f35b6060600180600281111561065857fe5b60046000600260009054906101000a900473ffffffffffffffffffffffffffffffffffffffff1673ffffffffffffffffffffffffffffffffffffffff1673ffffffffffffffffffffffffffffffffffffffff16815260200190815260200160002060000160009054906101000a900460ff1660028111156106d557fe5b14151561074a576040517f08c379a000000000000000000000000000000000000000000000000000000000815260040180806020018281038252600d8152602001807f496e76616c69642073746174650000000000000000000000000000000000000081525060200191505060405180910390fd5b33600260006101000a81548173ffffffffffffffffffffffffffffffffffffffff021916908373ffffffffffffffffffffffffffffffffffffffff1602179055506040805190810160405280600381526020017f626564000000000000000000000000000000000000000000000000000000000081525080519060200120868051906020012014801561081f57506040805190810160405280600881526020017f686f73746970616c000000000000000000000000000000000000000000000000815250805190602001208580519060200120145b156109a057600160056000600260009054906101000a900473ffffffffffffffffffffffffffffffffffffffff1673ffffffffffffffffffffffffffffffffffffffff1673ffffffffffffffffffffffffffffffffffffffff16815260200190815260200160002060000160006101000a81548160ff021916908315150217905550600160056000600260009054906101000a900473ffffffffffffffffffffffffffffffffffffffff1673ffffffffffffffffffffffffffffffffffffffff1673ffffffffffffffffffffffffffffffffffffffff16815260200190815260200160002060000160016101000a81548160ff021916908315150217905550600160056000600260009054906101000a900473ffffffffffffffffffffffffffffffffffffffff1673ffffffffffffffffffffffffffffffffffffffff1673ffffffffffffffffffffffffffffffffffffffff16815260200190815260200160002060000160026101000a81548160ff0219169083151502179055506109a9565b6109a8611ae1565b5b8360046000600260009054906101000a900473ffffffffffffffffffffffffffffffffffffffff1673ffffffffffffffffffffffffffffffffffffffff1673ffffffffffffffffffffffffffffffffffffffff16815260200190815260200160002060010154101515610a2357610a1e611ae1565b610cf7565b8360046000600260009054906101000a900473ffffffffffffffffffffffffffffffffffffffff1673ffffffffffffffffffffffffffffffffffffffff1673ffffffffffffffffffffffffffffffffffffffff16815260200190815260200160002060010154148015610afa57508260046000600260009054906101000a900473ffffffffffffffffffffffffffffffffffffffff1673ffffffffffffffffffffffffffffffffffffffff1673ffffffffffffffffffffffffffffffffffffffff1681526020019081526020016000206002015410155b15610b0c57610b07611ae1565b610cf6565b8360046000600260009054906101000a900473ffffffffffffffffffffffffffffffffffffffff1673ffffffffffffffffffffffffffffffffffffffff1673ffffffffffffffffffffffffffffffffffffffff168152602001908152602001600020600301541015610b8557610b80611ae1565b610cf5565b8360046000600260009054906101000a900473ffffffffffffffffffffffffffffffffffffffff1673ffffffffffffffffffffffffffffffffffffffff1673ffffffffffffffffffffffffffffffffffffffff16815260200190815260200160002060030154148015610c5c57508260046000600260009054906101000a900473ffffffffffffffffffffffffffffffffffffffff1673ffffffffffffffffffffffffffffffffffffffff1673ffffffffffffffffffffffffffffffffffffffff1681526020019081526020016000206004015411155b15610c6e57610c69611ae1565b610cf4565b600160046000600260009054906101000a900473ffffffffffffffffffffffffffffffffffffffff1673ffffffffffffffffffffffffffffffffffffffff1673ffffffffffffffffffffffffffffffffffffffff16815260200190815260200160002060050160006101000a81548160ff021916908315150217905550610cf3611baf565b5b5b5b5b7f36fa97672c9b1a0ea6973d38fd9c970418af0388f7683cb15038bcc06439c5a8600260009054906101000a900473ffffffffffffffffffffffffffffffffffffffff1660056000600260009054906101000a900473ffffffffffffffffffffffffffffffffffffffff1673ffffffffffffffffffffffffffffffffffffffff1673ffffffffffffffffffffffffffffffffffffffff16815260200190815260200160002060000160009054906101000a900460ff1660056000600260009054906101000a900473ffffffffffffffffffffffffffffffffffffffff1673ffffffffffffffffffffffffffffffffffffffff1673ffffffffffffffffffffffffffffffffffffffff16815260200190815260200160002060000160019054906101000a900460ff1660056000600260009054906101000a900473ffffffffffffffffffffffffffffffffffffffff1673ffffffffffffffffffffffffffffffffffffffff1673ffffffffffffffffffffffffffffffffffffffff16815260200190815260200160002060000160029054906101000a900460ff166017604051808673ffffffffffffffffffffffffffffffffffffffff1673ffffffffffffffffffffffffffffffffffffffff1681526020018515151515815260200184151515158152602001831515151581526020018281526020019550505050505060405180910390a16040805190810160405280600e81526020017f696e20676574446f63756d656e74000000000000000000000000000000000000815250915050949350505050565b606033600260006101000a81548173ffffffffffffffffffffffffffffffffffffffff021916908373ffffffffffffffffffffffffffffffffffffffff1602179055506000808154809291906001019190505550600260009054906101000a900473ffffffffffffffffffffffffffffffffffffffff1673ffffffffffffffffffffffffffffffffffffffff163160066000600260009054906101000a900473ffffffffffffffffffffffffffffffffffffffff1673ffffffffffffffffffffffffffffffffffffffff1673ffffffffffffffffffffffffffffffffffffffff16815260200190815260200160002081905550600260009054906101000a900473ffffffffffffffffffffffffffffffffffffffff1660046000600260009054906101000a900473ffffffffffffffffffffffffffffffffffffffff1673ffffffffffffffffffffffffffffffffffffffff1673ffffffffffffffffffffffffffffffffffffffff16815260200190815260200160002060000160016101000a81548173ffffffffffffffffffffffffffffffffffffffff021916908373ffffffffffffffffffffffffffffffffffffffff1602179055508460046000600260009054906101000a900473ffffffffffffffffffffffffffffffffffffffff1673ffffffffffffffffffffffffffffffffffffffff1673ffffffffffffffffffffffffffffffffffffffff168152602001908152602001600020600101819055508360046000600260009054906101000a900473ffffffffffffffffffffffffffffffffffffffff1673ffffffffffffffffffffffffffffffffffffffff1673ffffffffffffffffffffffffffffffffffffffff168152602001908152602001600020600201819055508260046000600260009054906101000a900473ffffffffffffffffffffffffffffffffffffffff1673ffffffffffffffffffffffffffffffffffffffff1673ffffffffffffffffffffffffffffffffffffffff168152602001908152602001600020600301819055508160046000600260009054906101000a900473ffffffffffffffffffffffffffffffffffffffff1673ffffffffffffffffffffffffffffffffffffffff1673ffffffffffffffffffffffffffffffffffffffff16815260200190815260200160002060040181905550600060046000600260009054906101000a900473ffffffffffffffffffffffffffffffffffffffff1673ffffffffffffffffffffffffffffffffffffffff1673ffffffffffffffffffffffffffffffffffffffff16815260200190815260200160002060050160006101000a81548160ff021916908315150217905550600160046000600260009054906101000a900473ffffffffffffffffffffffffffffffffffffffff1673ffffffffffffffffffffffffffffffffffffffff1673ffffffffffffffffffffffffffffffffffffffff16815260200190815260200160002060000160006101000a81548160ff0219169083600281111561139757fe5b02179055507f3cc31e73467ab2a2ecae9e567bb071be7b7a22c1ef77ddc6d9e69f92469792c660046000600260009054906101000a900473ffffffffffffffffffffffffffffffffffffffff1673ffffffffffffffffffffffffffffffffffffffff1673ffffffffffffffffffffffffffffffffffffffff16815260200190815260200160002060000160019054906101000a900473ffffffffffffffffffffffffffffffffffffffff1660046000600260009054906101000a900473ffffffffffffffffffffffffffffffffffffffff1673ffffffffffffffffffffffffffffffffffffffff1673ffffffffffffffffffffffffffffffffffffffff1681526020019081526020016000206001015460046000600260009054906101000a900473ffffffffffffffffffffffffffffffffffffffff1673ffffffffffffffffffffffffffffffffffffffff1673ffffffffffffffffffffffffffffffffffffffff1681526020019081526020016000206002015460046000600260009054906101000a900473ffffffffffffffffffffffffffffffffffffffff1673ffffffffffffffffffffffffffffffffffffffff1673ffffffffffffffffffffffffffffffffffffffff1681526020019081526020016000206003015460046000600260009054906101000a900473ffffffffffffffffffffffffffffffffffffffff1673ffffffffffffffffffffffffffffffffffffffff1673ffffffffffffffffffffffffffffffffffffffff1681526020019081526020016000206004015460046000600260009054906101000a900473ffffffffffffffffffffffffffffffffffffffff1673ffffffffffffffffffffffffffffffffffffffff1673ffffffffffffffffffffffffffffffffffffffff16815260200190815260200160002060050160009054906101000a900460ff16604051808773ffffffffffffffffffffffffffffffffffffffff1673ffffffffffffffffffffffffffffffffffffffff16815260200186815260200185815260200184815260200183815260200182151515158152602001965050505050505060405180910390a1600060056000600260009054906101000a900473ffffffffffffffffffffffffffffffffffffffff1673ffffffffffffffffffffffffffffffffffffffff1673ffffffffffffffffffffffffffffffffffffffff16815260200190815260200160002060000160006101000a81548160ff021916908315150217905550600060056000600260009054906101000a900473ffffffffffffffffffffffffffffffffffffffff1673ffffffffffffffffffffffffffffffffffffffff1673ffffffffffffffffffffffffffffffffffffffff16815260200190815260200160002060000160016101000a81548160ff021916908315150217905550600060056000600260009054906101000a900473ffffffffffffffffffffffffffffffffffffffff1673ffffffffffffffffffffffffffffffffffffffff1673ffffffffffffffffffffffffffffffffffffffff16815260200190815260200160002060000160026101000a81548160ff0219169083151502179055507f36fa97672c9b1a0ea6973d38fd9c970418af0388f7683cb15038bcc06439c5a8600260009054906101000a900473ffffffffffffffffffffffffffffffffffffffff1660056000600260009054906101000a900473ffffffffffffffffffffffffffffffffffffffff1673ffffffffffffffffffffffffffffffffffffffff1673ffffffffffffffffffffffffffffffffffffffff16815260200190815260200160002060000160009054906101000a900460ff1660056000600260009054906101000a900473ffffffffffffffffffffffffffffffffffffffff1673ffffffffffffffffffffffffffffffffffffffff1673ffffffffffffffffffffffffffffffffffffffff16815260200190815260200160002060000160019054906101000a900460ff1660056000600260009054906101000a900473ffffffffffffffffffffffffffffffffffffffff1673ffffffffffffffffffffffffffffffffffffffff1673ffffffffffffffffffffffffffffffffffffffff16815260200190815260200160002060000160029054906101000a900460ff166000604051808673ffffffffffffffffffffffffffffffffffffffff1673ffffffffffffffffffffffffffffffffffffffff1681526020018515151515815260200184151515158152602001831515151581526020018281526020019550505050505060405180910390a16040805190810160405280600a81526020017f7365742064657461696c000000000000000000000000000000000000000000008152509050949350505050565b6000600660008373ffffffffffffffffffffffffffffffffffffffff1673ffffffffffffffffffffffffffffffffffffffff168152602001908152602001600020549050919050565b600260009054906101000a900473ffffffffffffffffffffffffffffffffffffffff1681565b60015481565b6000600181141515611b5b576040517f08c379a000000000000000000000000000000000000000000000000000000000815260040180806020018281038252600d8152602001807f6661696c20696e20636c61696d0000000000000000000000000000000000000081525060200191505060405180910390fd5b50565b60056020528060005260406000206000915090508060000160009054906101000a900460ff16908060000160019054906101000a900460ff16908060000160029054906101000a900460ff16905083565b600260009054906101000a900473ffffffffffffffffffffffffffffffffffffffff1673ffffffffffffffffffffffffffffffffffffffff166108fc6001549081150290604051600060405180830381858888f19350505050158015611c19573d6000803e3d6000fd5b50600260009054906101000a900473ffffffffffffffffffffffffffffffffffffffff1673ffffffffffffffffffffffffffffffffffffffff163160066000600260009054906101000a900473ffffffffffffffffffffffffffffffffffffffff1673ffffffffffffffffffffffffffffffffffffffff1673ffffffffffffffffffffffffffffffffffffffff16815260200190815260200160002060008282540192505081905550600360009054906101000a900473ffffffffffffffffffffffffffffffffffffffff1673ffffffffffffffffffffffffffffffffffffffff163160066000600360009054906101000a900473ffffffffffffffffffffffffffffffffffffffff1673ffffffffffffffffffffffffffffffffffffffff1673ffffffffffffffffffffffffffffffffffffffff16815260200190815260200160002060008282540392505081905550565b60005481565b600360009054906101000a900473ffffffffffffffffffffffffffffffffffffffff1681565b60046020528060005260406000206000915090508060000160009054906101000a900460ff16908060000160019054906101000a900473ffffffffffffffffffffffffffffffffffffffff16908060010154908060020154908060030154908060040154908060050160009054906101000a900460ff1690508756fea165627a7a7230582013b3f7ba2854276b46e27ea0d686360fb36dc7fd8f2354d6cea5395872fb3e5a0029",
  "source": "pragma solidity ^0.5.0;\r\n\r\ncontract Insurance{\r\n    uint public total_usr = 0;\r\n    uint public pay_money = 5 ether;\r\n    address payable public user;\r\n    address payable public insurer;\r\n    enum State {Start, SetDetail, EndContract}\r\n\r\n    struct Detail{      //contract detail\r\n        State state;\r\n        address user_addr;\r\n        uint startM;\r\n        uint startD;\r\n        uint endM;\r\n        uint endD;\r\n        bool if_accident;\r\n    }\r\n\r\n    struct Document{   //claim document\r\n        bool A;\r\n        bool B;\r\n        bool C;\r\n    }\r\n\r\n    mapping(address => Detail) public detail;\r\n    mapping(address => Document) public document;\r\n    mapping(address => uint256) balanceOf;\r\n\r\n    event e_Detail(\r\n        // uint userID,\r\n        address user_addr,\r\n        uint startM,\r\n        uint startD,\r\n        uint endM,\r\n        uint endD,\r\n        bool accident\r\n    );\r\n\r\n    event e_Document(\r\n        address user_addr,\r\n        bool A,\r\n        bool B,\r\n        bool C,\r\n        int num\r\n    );\r\n\r\n    //modifier function\r\n    modifier check_claim(uint S){\r\n        require(\r\n            S == 1,\r\n            \"fail in claim\"\r\n        );\r\n        _;\r\n    }\r\n\r\n    modifier check_user(){\r\n        require(\r\n            msg.sender == detail[user].user_addr,\r\n            \"Wrong user\"\r\n        );\r\n        _;\r\n    }\r\n\r\n    modifier inState(State _state){\r\n        require(\r\n            detail[user].state == _state,\r\n            \"Invalid state\"\r\n        );\r\n        _;\r\n    }\r\n\r\n    //start\r\n    //get into constructor when contract be deployed - only one time\r\n    constructor() public payable{\r\n       insurer = msg.sender;\r\n        balanceOf[insurer] = msg.value;\r\n        // setUserInfo(\"test\", 0000, 00, 0, 0);\r\n    }\r\n\r\n    function SetDetail(uint _startM, uint _startD, uint _endM,  uint _endD) public returns (string memory){\r\n        //init\r\n        user = msg.sender;\r\n        total_usr++;\r\n        balanceOf[user]=user.balance;\r\n\r\n        //set detail struct data\r\n        detail[user].user_addr = user;\r\n        detail[user].startM = _startM;\r\n        detail[user].startD = _startD;\r\n        detail[user].endM = _endM;\r\n        detail[user].endD = _endD;\r\n        detail[user].if_accident = false;\r\n        detail[user].state = State.SetDetail;\r\n\r\n        emit e_Detail(detail[user].user_addr, detail[user].startM, detail[user].startD, detail[user].endM, detail[user].endD, detail[user].if_accident);\r\n\r\n        //init document\r\n        document[user].A = false;\r\n        document[user].B = false;\r\n        document[user].C = false;\r\n\r\n        emit e_Document(user, document[user].A, document[user].B, document[user].C, 0);\r\n\r\n        return (\"set detail\");\r\n    }\r\n\r\n    function getDocument(string memory _A, string memory  _B, uint _M, uint _D) public inState(State.SetDetail) returns (string memory){\r\n        user = msg.sender;\r\n\r\n        if(keccak256(bytes(_A))==keccak256(bytes(\"bed\")) && keccak256(bytes(_B))==keccak256(bytes(\"hostipal\"))){\r\n            document[user].A = true;\r\n            document[user].B = true;\r\n            document[user].C = true;\r\n        }else{\r\n            is_error();\r\n        }\r\n\r\n        if(detail[user].startM >= _M){\r\n            is_error();\r\n        }else if(detail[user].startM == _M && detail[user].startD >= _D){\r\n            is_error();\r\n        }else if(detail[user].endM < _M){\r\n            is_error();\r\n        }else if(detail[user].endM == _M && detail[user].endD <= _D){\r\n            is_error();\r\n        }else{\r\n            detail[user].if_accident = true;\r\n            // detail[user].state = State.EndContract;\r\n            transfer();\r\n        }\r\n\r\n        emit e_Document(user, document[user].A, document[user].B, document[user].C, 23);\r\n\r\n        return (\"in getDocument\");\r\n    }\r\n\r\n    // function() external payable{} ///????????????????????????\r\n\r\n    function transfer() public payable{\r\n        //1. check insurer's balance, if pay_money < insurer.balance\r\n        //2. transfer to user\r\n        user.transfer(pay_money);\r\n\r\n        //reset balanceOf\r\n        balanceOf[user] += user.balance;\r\n        balanceOf[insurer] -= insurer.balance;\r\n    }\r\n\r\n    function getbalanceOf(address a) public view returns(uint256){\r\n        return balanceOf[a];\r\n    }\r\n\r\n    function is_error() public pure check_claim(0){ }\r\n}",
  "sourcePath": "D:/learnBlockChain/web/InsuranceWeb/contracts/Insurance.sol",
  "compiler": {
    "name": "solc",
    "version": "0.5.0+commit.1d4f565a.Emscripten.clang"
  },
  "schemaVersion": "3.0.3",
  "updatedAt": "2019-07-01T06:16:15.664Z",
  "devdoc": {
    "methods": {}
  },
  "userdoc": {
    "methods": {}
  }
}