{
  "contractName": "Insurance",
  "abi": [
    {
      "constant": true,
      "inputs": [],
      "name": "user_ID",
      "outputs": [
        {
          "name": "",
          "type": "uint256"
        }
      ],
      "payable": false,
      "stateMutability": "view",
      "type": "function",
      "signature": "0x14c0ce93"
    },
    {
      "constant": true,
      "inputs": [],
      "name": "money",
      "outputs": [
        {
          "name": "",
          "type": "uint256"
        }
      ],
      "payable": false,
      "stateMutability": "view",
      "type": "function",
      "signature": "0x4ddd108a"
    },
    {
      "constant": true,
      "inputs": [],
      "name": "user",
      "outputs": [
        {
          "name": "",
          "type": "address"
        }
      ],
      "payable": false,
      "stateMutability": "view",
      "type": "function",
      "signature": "0x4f8632ba"
    },
    {
      "constant": true,
      "inputs": [
        {
          "name": "",
          "type": "uint256"
        }
      ],
      "name": "userInfo",
      "outputs": [
        {
          "name": "state",
          "type": "uint8"
        },
        {
          "name": "addr",
          "type": "address"
        },
        {
          "name": "Name",
          "type": "string"
        },
        {
          "name": "birth",
          "type": "uint256"
        },
        {
          "name": "ID",
          "type": "uint256"
        }
      ],
      "payable": false,
      "stateMutability": "view",
      "type": "function",
      "signature": "0x51d70bc4"
    },
    {
      "constant": true,
      "inputs": [
        {
          "name": "",
          "type": "uint256"
        }
      ],
      "name": "document",
      "outputs": [
        {
          "name": "count",
          "type": "uint256"
        },
        {
          "name": "A",
          "type": "bool"
        },
        {
          "name": "B",
          "type": "bool"
        },
        {
          "name": "C",
          "type": "bool"
        }
      ],
      "payable": false,
      "stateMutability": "view",
      "type": "function",
      "signature": "0x7fb173af"
    },
    {
      "constant": true,
      "inputs": [],
      "name": "total_usr",
      "outputs": [
        {
          "name": "",
          "type": "uint256"
        }
      ],
      "payable": false,
      "stateMutability": "view",
      "type": "function",
      "signature": "0x9935f1fc"
    },
    {
      "constant": true,
      "inputs": [],
      "name": "state",
      "outputs": [
        {
          "name": "",
          "type": "uint8"
        }
      ],
      "payable": false,
      "stateMutability": "view",
      "type": "function",
      "signature": "0xc19d93fb"
    },
    {
      "constant": true,
      "inputs": [
        {
          "name": "",
          "type": "uint256"
        }
      ],
      "name": "detail",
      "outputs": [
        {
          "name": "startTime",
          "type": "uint256"
        },
        {
          "name": "endTime",
          "type": "uint256"
        },
        {
          "name": "accident",
          "type": "bool"
        }
      ],
      "payable": false,
      "stateMutability": "view",
      "type": "function",
      "signature": "0xdb487f36"
    },
    {
      "constant": true,
      "inputs": [],
      "name": "receiver",
      "outputs": [
        {
          "name": "",
          "type": "address"
        }
      ],
      "payable": false,
      "stateMutability": "view",
      "type": "function",
      "signature": "0xf7260d3e"
    },
    {
      "inputs": [],
      "payable": false,
      "stateMutability": "nonpayable",
      "type": "constructor",
      "signature": "constructor"
    },
    {
      "payable": true,
      "stateMutability": "payable",
      "type": "fallback"
    },
    {
      "anonymous": false,
      "inputs": [
        {
          "indexed": false,
          "name": "userID",
          "type": "uint256"
        },
        {
          "indexed": false,
          "name": "Name",
          "type": "string"
        },
        {
          "indexed": false,
          "name": "birth",
          "type": "uint256"
        },
        {
          "indexed": false,
          "name": "ID",
          "type": "uint256"
        }
      ],
      "name": "e_UserInfo",
      "type": "event",
      "signature": "0xf6901d54e4394535d5d1430311197afbc5ad0749dec6ccd7381f78ed7bb04726"
    },
    {
      "anonymous": false,
      "inputs": [
        {
          "indexed": false,
          "name": "userID",
          "type": "uint256"
        },
        {
          "indexed": false,
          "name": "startTime",
          "type": "uint256"
        },
        {
          "indexed": false,
          "name": "endTime",
          "type": "uint256"
        },
        {
          "indexed": false,
          "name": "accident",
          "type": "bool"
        }
      ],
      "name": "e_Detail",
      "type": "event",
      "signature": "0xf11530aad7bbdbbb165aaf4bfa425806a50447809bb41791c649d3b366a0a78e"
    },
    {
      "anonymous": false,
      "inputs": [
        {
          "indexed": false,
          "name": "userID",
          "type": "uint256"
        },
        {
          "indexed": false,
          "name": "count",
          "type": "uint256"
        },
        {
          "indexed": false,
          "name": "A",
          "type": "bool"
        },
        {
          "indexed": false,
          "name": "B",
          "type": "bool"
        },
        {
          "indexed": false,
          "name": "C",
          "type": "bool"
        }
      ],
      "name": "e_Document",
      "type": "event",
      "signature": "0xbe6ca3229a97b565657af8b9c873406e72adcca3247239f95271b0c6bd852217"
    },
    {
      "constant": false,
      "inputs": [
        {
          "name": "_Name",
          "type": "string"
        },
        {
          "name": "_ID",
          "type": "uint256"
        },
        {
          "name": "_birth",
          "type": "uint256"
        },
        {
          "name": "_startTime",
          "type": "uint256"
        },
        {
          "name": "_endTime",
          "type": "uint256"
        }
      ],
      "name": "setUserInfo",
      "outputs": [],
      "payable": false,
      "stateMutability": "nonpayable",
      "type": "function",
      "signature": "0xf2cec169"
    },
    {
      "constant": false,
      "inputs": [
        {
          "name": "_ID",
          "type": "uint256"
        }
      ],
      "name": "getAccident",
      "outputs": [
        {
          "name": "",
          "type": "string"
        }
      ],
      "payable": false,
      "stateMutability": "nonpayable",
      "type": "function",
      "signature": "0x5c1fad08"
    },
    {
      "constant": false,
      "inputs": [
        {
          "name": "_ID",
          "type": "uint256"
        }
      ],
      "name": "getDocument",
      "outputs": [],
      "payable": false,
      "stateMutability": "nonpayable",
      "type": "function",
      "signature": "0x3f9b250a"
    },
    {
      "constant": false,
      "inputs": [],
      "name": "transfer",
      "outputs": [],
      "payable": false,
      "stateMutability": "nonpayable",
      "type": "function",
      "signature": "0x8a4068dd"
    },
    {
      "constant": true,
      "inputs": [
        {
          "name": "a",
          "type": "address"
        }
      ],
      "name": "getbalanceOf",
      "outputs": [
        {
          "name": "",
          "type": "uint256"
        }
      ],
      "payable": false,
      "stateMutability": "view",
      "type": "function",
      "signature": "0x47e851fa"
    }
  ],
  "bytecode": "0x6080604052600080556103e86002557f646f6341000000000000000000000000000000000000000000000000000000006005557f646f6342000000000000000000000000000000000000000000000000000000006006557f646f6343000000000000000000000000000000000000000000000000000000006007553480156200008757600080fd5b50620000e06040805190810160405280600481526020017f746573740000000000000000000000000000000000000000000000000000000081525061196a601a6005600a620000e6640100000000026401000000009004565b620005b7565b60008081548092919060010191905055508360018190555033600a6000600154815260200190815260200160002060000160016101000a81548173ffffffffffffffffffffffffffffffffffffffff021916908373ffffffffffffffffffffffffffffffffffffffff16021790555083600a600060015481526020019081526020016000206003018190555084600a600060015481526020019081526020016000206001019080519060200190620001a092919062000508565b5082600a60006001548152602001908152602001600020600201819055506063600c6000600a6000600154815260200190815260200160002060000160019054906101000a900473ffffffffffffffffffffffffffffffffffffffff1673ffffffffffffffffffffffffffffffffffffffff1673ffffffffffffffffffffffffffffffffffffffff168152602001908152602001600020819055507ff6901d54e4394535d5d1430311197afbc5ad0749dec6ccd7381f78ed7bb04726600154600a60006001548152602001908152602001600020600101600a6000600154815260200190815260200160002060020154600a60006001548152602001908152602001600020600301546040518085815260200180602001848152602001838152602001828103825285818154600181600116156101000203166002900481526020019150805460018160011615610100020316600290048015620003485780601f106200031c5761010080835404028352916020019162000348565b820191906000526020600020905b8154815290600101906020018083116200032a57829003601f168201915b50509550505050505060405180910390a181600960006001548152602001908152602001600020600001819055508060096000600154815260200190815260200160002060010181905550600060096000600154815260200190815260200160002060020160006101000a81548160ff0219169083151502179055506000600b6000600154815260200190815260200160002060010160006101000a81548160ff0219169083151502179055506000600b6000600154815260200190815260200160002060010160016101000a81548160ff0219169083151502179055506000600b6000600154815260200190815260200160002060010160026101000a81548160ff0219169083151502179055507ff11530aad7bbdbbb165aaf4bfa425806a50447809bb41791c649d3b366a0a78e600154600960006001548152602001908152602001600020600001546009600060015481526020019081526020016000206001015460096000600154815260200190815260200160002060020160009054906101000a900460ff16604051808581526020018481526020018381526020018215151515815260200194505050505060405180910390a15050505050565b828054600181600116156101000203166002900490600052602060002090601f016020900481019282601f106200054b57805160ff19168380011785556200057c565b828001600101855582156200057c579182015b828111156200057b5782518255916020019190600101906200055e565b5b5090506200058b91906200058f565b5090565b620005b491905b80821115620005b057600081600090555060010162000596565b5090565b90565b61103080620005c76000396000f3fe6080604052600436106100d0576000357c0100000000000000000000000000000000000000000000000000000000900463ffffffff16806314c0ce93146100d25780633f9b250a146100fd57806347e851fa146101385780634ddd108a1461019d5780634f8632ba146101c857806351d70bc41461021f5780635c1fad08146103295780637fb173af146103dd5780638a4068dd1461044d5780639935f1fc14610464578063c19d93fb1461048f578063db487f36146104c8578063f2cec16914610529578063f7260d3e14610619575b005b3480156100de57600080fd5b506100e7610670565b6040518082815260200191505060405180910390f35b34801561010957600080fd5b506101366004803603602081101561012057600080fd5b8101908080359060200190929190505050610676565b005b34801561014457600080fd5b506101876004803603602081101561015b57600080fd5b81019080803573ffffffffffffffffffffffffffffffffffffffff169060200190929190505050610807565b6040518082815260200191505060405180910390f35b3480156101a957600080fd5b506101b2610850565b6040518082815260200191505060405180910390f35b3480156101d457600080fd5b506101dd610856565b604051808273ffffffffffffffffffffffffffffffffffffffff1673ffffffffffffffffffffffffffffffffffffffff16815260200191505060405180910390f35b34801561022b57600080fd5b506102586004803603602081101561024257600080fd5b810190808035906020019092919050505061087c565b6040518086600481111561026857fe5b60ff1681526020018573ffffffffffffffffffffffffffffffffffffffff1673ffffffffffffffffffffffffffffffffffffffff16815260200180602001848152602001838152602001828103825285818151815260200191508051906020019080838360005b838110156102ea5780820151818401526020810190506102cf565b50505050905090810190601f1680156103175780820380516001836020036101000a031916815260200191505b50965050505050505060405180910390f35b34801561033557600080fd5b506103626004803603602081101561034c57600080fd5b8101908080359060200190929190505050610977565b6040518080602001828103825283818151815260200191508051906020019080838360005b838110156103a2578082015181840152602081019050610387565b50505050905090810190601f1680156103cf5780820380516001836020036101000a031916815260200191505b509250505060405180910390f35b3480156103e957600080fd5b506104166004803603602081101561040057600080fd5b81019080803590602001909291905050506109ee565b6040518085815260200184151515158152602001831515151581526020018215151515815260200194505050505060405180910390f35b34801561045957600080fd5b50610462610a45565b005b34801561047057600080fd5b50610479610acd565b6040518082815260200191505060405180910390f35b34801561049b57600080fd5b506104a4610ad3565b604051808260048111156104b457fe5b60ff16815260200191505060405180910390f35b3480156104d457600080fd5b50610501600480360360208110156104eb57600080fd5b8101908080359060200190929190505050610ae6565b6040518084815260200183815260200182151515158152602001935050505060405180910390f35b34801561053557600080fd5b50610617600480360360a081101561054c57600080fd5b810190808035906020019064010000000081111561056957600080fd5b82018360208201111561057b57600080fd5b8035906020019184600183028401116401000000008311171561059d57600080fd5b91908080601f016020809104026020016040519081016040528093929190818152602001838380828437600081840152601f19601f82011690508083019250505050505050919291929080359060200190929190803590602001909291908035906020019092919080359060200190929190505050610b1d565b005b34801561062557600080fd5b5061062e610f39565b604051808273ffffffffffffffffffffffffffffffffffffffff1673ffffffffffffffffffffffffffffffffffffffff16815260200191505060405180910390f35b60015481565b806001819055506001600b6000600154815260200190815260200160002060010160006101000a81548160ff0219169083151502179055506001600b6000600154815260200190815260200160002060010160016101000a81548160ff0219169083151502179055506001600b6000600154815260200190815260200160002060010160026101000a81548160ff021916908315150217905550610718610a45565b7fbe6ca3229a97b565657af8b9c873406e72adcca3247239f95271b0c6bd852217600154600b6000600154815260200190815260200160002060000154600b6000600154815260200190815260200160002060010160009054906101000a900460ff16600b6000600154815260200190815260200160002060010160019054906101000a900460ff16600b6000600154815260200190815260200160002060010160029054906101000a900460ff16604051808681526020018581526020018415151515815260200183151515158152602001821515151581526020019550505050505060405180910390a150565b6000600c60008373ffffffffffffffffffffffffffffffffffffffff1673ffffffffffffffffffffffffffffffffffffffff168152602001908152602001600020549050919050565b60025481565b600360009054906101000a900473ffffffffffffffffffffffffffffffffffffffff1681565b600a6020528060005260406000206000915090508060000160009054906101000a900460ff16908060000160019054906101000a900473ffffffffffffffffffffffffffffffffffffffff1690806001018054600181600116156101000203166002900480601f0160208091040260200160405190810160405280929190818152602001828054600181600116156101000203166002900480156109615780601f1061093657610100808354040283529160200191610961565b820191906000526020600020905b81548152906001019060200180831161094457829003601f168201915b5050505050908060020154908060030154905085565b606081600181905550600160096000600154815260200190815260200160002060020160006101000a81548160ff0219169083151502179055506040805190810160405280601c81526020017f706c656173652067697665206d6520736f6d6520646f63756d656e74000000008152509050919050565b600b6020528060005260406000206000915090508060000154908060010160009054906101000a900460ff16908060010160019054906101000a900460ff16908060010160029054906101000a900460ff16905084565b600a600c6000600a6000600154815260200190815260200160002060000160019054906101000a900473ffffffffffffffffffffffffffffffffffffffff1673ffffffffffffffffffffffffffffffffffffffff1673ffffffffffffffffffffffffffffffffffffffff16815260200190815260200160002060008282540192505081905550565b60005481565b600860009054906101000a900460ff1681565b60096020528060005260406000206000915090508060000154908060010154908060020160009054906101000a900460ff16905083565b60008081548092919060010191905055508360018190555033600a6000600154815260200190815260200160002060000160016101000a81548173ffffffffffffffffffffffffffffffffffffffff021916908373ffffffffffffffffffffffffffffffffffffffff16021790555083600a600060015481526020019081526020016000206003018190555084600a600060015481526020019081526020016000206001019080519060200190610bd5929190610f5f565b5082600a60006001548152602001908152602001600020600201819055506063600c6000600a6000600154815260200190815260200160002060000160019054906101000a900473ffffffffffffffffffffffffffffffffffffffff1673ffffffffffffffffffffffffffffffffffffffff1673ffffffffffffffffffffffffffffffffffffffff168152602001908152602001600020819055507ff6901d54e4394535d5d1430311197afbc5ad0749dec6ccd7381f78ed7bb04726600154600a60006001548152602001908152602001600020600101600a6000600154815260200190815260200160002060020154600a60006001548152602001908152602001600020600301546040518085815260200180602001848152602001838152602001828103825285818154600181600116156101000203166002900481526020019150805460018160011615610100020316600290048015610d795780601f10610d4e57610100808354040283529160200191610d79565b820191906000526020600020905b815481529060010190602001808311610d5c57829003601f168201915b50509550505050505060405180910390a181600960006001548152602001908152602001600020600001819055508060096000600154815260200190815260200160002060010181905550600060096000600154815260200190815260200160002060020160006101000a81548160ff0219169083151502179055506000600b6000600154815260200190815260200160002060010160006101000a81548160ff0219169083151502179055506000600b6000600154815260200190815260200160002060010160016101000a81548160ff0219169083151502179055506000600b6000600154815260200190815260200160002060010160026101000a81548160ff0219169083151502179055507ff11530aad7bbdbbb165aaf4bfa425806a50447809bb41791c649d3b366a0a78e600154600960006001548152602001908152602001600020600001546009600060015481526020019081526020016000206001015460096000600154815260200190815260200160002060020160009054906101000a900460ff16604051808581526020018481526020018381526020018215151515815260200194505050505060405180910390a15050505050565b600460009054906101000a900473ffffffffffffffffffffffffffffffffffffffff1681565b828054600181600116156101000203166002900490600052602060002090601f016020900481019282601f10610fa057805160ff1916838001178555610fce565b82800160010185558215610fce579182015b82811115610fcd578251825591602001919060010190610fb2565b5b509050610fdb9190610fdf565b5090565b61100191905b80821115610ffd576000816000905550600101610fe5565b5090565b9056fea165627a7a723058205e4ccfb5bc02a88073faa0f54ee244a5f49cb5a26fab409ca2456c98344f03340029",
  "source": "pragma solidity ^0.5.0;\r\n\r\ncontract Insurance{\r\n    uint public total_usr = 0;\r\n    uint public user_ID;\r\n    uint public money = 1000;\r\n    address payable public user;\r\n    address payable public receiver;\r\n    bytes32 Document_A = 'docA';\r\n    bytes32 Document_B = \"docB\";\r\n    bytes32 Document_C = \"docC\";\r\n    enum State {SetInfo, SetDetail, GetAccident, GetDocument, Finish} \r\n    State public state;\r\n    \r\n    struct UserInfo{\r\n        State state;\r\n        address addr;\r\n        \r\n        string Name;\r\n        uint birth;\r\n        uint ID;\r\n    }\r\n    \r\n    struct Detail{\r\n        uint startTime;\r\n        uint endTime;\r\n        bool accident;\r\n    }\r\n    \r\n    struct Document{\r\n        uint count;\r\n        bool A;\r\n        bool B;\r\n        bool C;\r\n    }\r\n    \r\n    mapping(uint => Detail) public detail;\r\n    mapping(uint => UserInfo) public userInfo;\r\n    mapping(uint => Document) public document;\r\n    \r\n    mapping(address => uint256) balanceOf;\r\n    \r\n    event e_UserInfo(\r\n        uint userID,\r\n        string Name,\r\n        uint birth,\r\n        uint ID\r\n    );\r\n\r\n    event e_Detail( //contract detail\r\n        uint userID,\r\n        uint startTime,\r\n        uint endTime,\r\n        bool accident\r\n    );\r\n\r\n    event e_Document(\r\n        uint userID,\r\n        uint count,\r\n        bool A,\r\n        bool B,\r\n        bool C\r\n    );\r\n\r\n    constructor() public{   \r\n        // user = msg.sender;\r\n        //receiver = receiver.address\r\n        //balanceOf[receiver] = 1000;\r\n        setUserInfo(\"test\", 6506, 26, 5, 10);\r\n    }\r\n    \r\n    modifier check_date(uint time){   //??????????????????????\r\n        require(\r\n            time <= detail[user_ID].endTime && time >= detail[user_ID].startTime, \r\n            \"not in the right time\"\r\n        );\r\n        _;\r\n    }\r\n    \r\n    modifier check_user(){\r\n        require(\r\n            msg.sender == userInfo[user_ID].addr,\r\n            \"Wrong user\"\r\n        );\r\n        _;\r\n    }\r\n    \r\n    modifier inState(State _state){\r\n        require(\r\n            userInfo[user_ID].state == _state,\r\n            \"Invalid state\"\r\n        );\r\n        _;\r\n    }\r\n\r\n    function setUserInfo(string memory _Name, uint _ID, uint _birth, uint _startTime, uint _endTime) public {\r\n        total_usr++;\r\n        user_ID = _ID; \r\n        \r\n        userInfo[user_ID].addr = msg.sender;\r\n        userInfo[user_ID].ID = _ID;\r\n        userInfo[user_ID].Name = _Name;\r\n        userInfo[user_ID].birth = _birth; \r\n\r\n        balanceOf[userInfo[user_ID].addr] = 99;\r\n        \r\n        emit e_UserInfo(user_ID, userInfo[user_ID].Name, userInfo[user_ID].birth, userInfo[user_ID].ID);\r\n\r\n        detail[user_ID].startTime = _startTime;\r\n        detail[user_ID].endTime = _endTime;\r\n        detail[user_ID].accident = false;\r\n        \r\n        document[user_ID].A = false;\r\n        document[user_ID].B = false;\r\n        document[user_ID].C = false;\r\n\r\n        emit e_Detail(user_ID, detail[user_ID].startTime, detail[user_ID].endTime, detail[user_ID].accident);\r\n    }\r\n    \r\n    //be sure the user already do setUserInfo\r\n    /*\r\n    function setContract(uint _ID, uint _startTime, uint _endTime, uint _money) public check_user {\r\n        user_ID = _ID; \r\n        detail[user_ID].startTime = _startTime;\r\n        detail[user_ID].endTime = _endTime;\r\n        detail[user_ID].money = _money;\r\n        detail[user_ID].accident = false;\r\n        \r\n        document[user_ID].A = false;\r\n        document[user_ID].B = false;\r\n        document[user_ID].C = false;\r\n\r\n        emit e_Detail(user_ID, detail[user_ID].startTime, detail[user_ID].endTime, detail[user_ID].money, detail[user_ID].accident);\r\n    }\r\n    */\r\n\r\n    function getAccident(uint _ID) public returns(string memory){\r\n        user_ID = _ID;\r\n        detail[user_ID].accident = true;\r\n        return(\"please give me some document\");\r\n    }\r\n\r\n    function getDocument(uint _ID) public{\r\n        user_ID = _ID;\r\n        document[user_ID].A = true;\r\n        document[user_ID].B = true;\r\n        document[user_ID].C = true;\r\n\r\n        transfer();\r\n        emit e_Document(user_ID, document[user_ID].count, document[user_ID].A, document[user_ID].B, document[user_ID].C);\r\n\r\n    }\r\n    \r\n    /*\r\n    function getDocument(uint _ID, string memory _document) public returns(string memory){  //how to upload file???? make to do list????\r\n        user_ID = _ID;\r\n        if(_document == Document_A){\r\n            if(document[user_ID].A == false){\r\n                document[user_ID].A = true;\r\n                document[user_ID].count++;\r\n            }else{\r\n                return(\"already get docA\");\r\n            }\r\n            \r\n        }else if(_document == Document_B){\r\n            if(document[user_ID].B == false){\r\n                document[user_ID].B = true;\r\n                document[user_ID].count++;\r\n            }else{\r\n                return(\"already get docB\");\r\n            }\r\n            \r\n        }else if(_document == Document_C){\r\n            if(document[user_ID].C == false){\r\n                document[user_ID].C = true;\r\n                document[user_ID].count++;\r\n            }else{\r\n                return(\"already get docC\");\r\n            }\r\n        }else{\r\n            return(\"wrong input doc\");\r\n        }\r\n        \r\n        if(document[user_ID].count == 3){ //transfer money\r\n            transfer();\r\n            return(\"transfer money\");\r\n        }\r\n        return(\"get doc\"); //not going\r\n\r\n        emit e_Document(user_ID, document[user_ID].count, document[user_ID].A, document[user_ID].B, document[user_ID].C);\r\n    }\r\n    */\r\n\r\n        \r\n    function() external payable{} \r\n    \r\n    function transfer() public {\r\n        // user.transfer(address(this).balance);\r\n        balanceOf[userInfo[user_ID].addr] += 10; \r\n    }\r\n    \r\n    // function Balance() public view returns(uint){\r\n    //     return address(this).balance;\r\n    // }\r\n    \r\n    function getbalanceOf(address a) public view returns(uint256){\r\n        return balanceOf[a];\r\n    }\r\n}",
  "sourcePath": "D:/learnBlockChain/web/InsuranceWeb/contracts/Insurance.sol",
  "compiler": {
    "name": "solc",
    "version": "0.5.0+commit.1d4f565a.Emscripten.clang"
  },
  "schemaVersion": "3.0.3",
  "updatedAt": "2019-04-30T12:53:09.821Z",
  "devdoc": {
    "methods": {}
  },
  "userdoc": {
    "methods": {}
  }
}